{
  "contractName": "User",
  "abi": [
    {
      "inputs": [
        {
          "internalType": "string",
          "name": "username",
          "type": "string"
        }
      ],
      "name": "get",
      "outputs": [
        {
          "internalType": "string",
          "name": "",
          "type": "string"
        },
        {
          "internalType": "string",
          "name": "",
          "type": "string"
        },
        {
          "internalType": "string",
          "name": "",
          "type": "string"
        },
        {
          "internalType": "string",
          "name": "",
          "type": "string"
        },
        {
          "internalType": "string",
          "name": "",
          "type": "string"
        },
        {
          "internalType": "string",
          "name": "",
          "type": "string"
        },
        {
          "internalType": "string",
          "name": "",
          "type": "string"
        }
      ],
      "stateMutability": "view",
      "type": "function"
    },
    {
      "inputs": [
        {
          "internalType": "string",
          "name": "name",
          "type": "string"
        },
        {
          "internalType": "string",
          "name": "username",
          "type": "string"
        },
        {
          "internalType": "string",
          "name": "phoneNumber",
          "type": "string"
        },
        {
          "internalType": "string",
          "name": "vehicle",
          "type": "string"
        },
        {
          "internalType": "string",
          "name": "vehicleNo",
          "type": "string"
        },
        {
          "internalType": "string",
          "name": "category",
          "type": "string"
        },
        {
          "internalType": "string",
          "name": "password",
          "type": "string"
        },
        {
          "internalType": "string",
          "name": "key",
          "type": "string"
        }
      ],
      "name": "set",
      "outputs": [],
      "stateMutability": "nonpayable",
      "type": "function"
    },
    {
      "inputs": [
        {
          "internalType": "string",
          "name": "driver",
          "type": "string"
        },
        {
          "internalType": "string",
          "name": "rider",
          "type": "string"
        }
      ],
      "name": "setFinalBid",
      "outputs": [],
      "stateMutability": "nonpayable",
      "type": "function"
    },
    {
      "inputs": [
        {
          "internalType": "string",
          "name": "rider",
          "type": "string"
        }
      ],
      "name": "getFinalBid",
      "outputs": [
        {
          "internalType": "uint256",
          "name": "",
          "type": "uint256"
        }
      ],
      "stateMutability": "view",
      "type": "function"
    }
  ],
  "bytecode": "0x608060405234801561001057600080fd5b50610f5d806100206000396000f3fe608060405234801561001057600080fd5b506004361061004c5760003560e01c80631b67acc014610051578063693ec85e1461006d578063ae8ac48f146100a3578063c82dec55146100d3575b600080fd5b61006b6004803603810190610066919061084c565b6100ef565b005b610087600480360381019061008291906109e2565b6101e7565b60405161009a9796959493929190610aaa565b60405180910390f35b6100bd60048036038101906100b891906109e2565b610659565b6040516100ca9190610b63565b60405180910390f35b6100ed60048036038101906100e89190610b7e565b610684565b005b6040518060e00160405280828152602001838152602001878152602001868152602001858152602001898152602001848152506000886040516101329190610c32565b908152602001604051809103902060008201518160000190816101559190610e55565b50602082015181600101908161016b9190610e55565b5060408201518160020190816101819190610e55565b5060608201518160030190816101979190610e55565b5060808201518160040190816101ad9190610e55565b5060a08201518160050190816101c39190610e55565b5060c08201518160060190816101d99190610e55565b509050505050505050505050565b6060806060806060806060600080896040516102039190610c32565b90815260200160405180910390206040518060e001604052908160008201805461022c90610c78565b80601f016020809104026020016040519081016040528092919081815260200182805461025890610c78565b80156102a55780601f1061027a576101008083540402835291602001916102a5565b820191906000526020600020905b81548152906001019060200180831161028857829003601f168201915b505050505081526020016001820180546102be90610c78565b80601f01602080910402602001604051908101604052809291908181526020018280546102ea90610c78565b80156103375780601f1061030c57610100808354040283529160200191610337565b820191906000526020600020905b81548152906001019060200180831161031a57829003601f168201915b5050505050815260200160028201805461035090610c78565b80601f016020809104026020016040519081016040528092919081815260200182805461037c90610c78565b80156103c95780601f1061039e576101008083540402835291602001916103c9565b820191906000526020600020905b8154815290600101906020018083116103ac57829003601f168201915b505050505081526020016003820180546103e290610c78565b80601f016020809104026020016040519081016040528092919081815260200182805461040e90610c78565b801561045b5780601f106104305761010080835404028352916020019161045b565b820191906000526020600020905b81548152906001019060200180831161043e57829003601f168201915b5050505050815260200160048201805461047490610c78565b80601f01602080910402602001604051908101604052809291908181526020018280546104a090610c78565b80156104ed5780601f106104c2576101008083540402835291602001916104ed565b820191906000526020600020905b8154815290600101906020018083116104d057829003601f168201915b5050505050815260200160058201805461050690610c78565b80601f016020809104026020016040519081016040528092919081815260200182805461053290610c78565b801561057f5780601f106105545761010080835404028352916020019161057f565b820191906000526020600020905b81548152906001019060200180831161056257829003601f168201915b5050505050815260200160068201805461059890610c78565b80601f01602080910402602001604051908101604052809291908181526020018280546105c490610c78565b80156106115780601f106105e657610100808354040283529160200191610611565b820191906000526020600020905b8154815290600101906020018083116105f457829003601f168201915b505050505081525050905080600001518160400151826060015183608001518460c001518560a001518660200151975097509750975097509750975050919395979092949650565b600060018260405161066b9190610c32565b9081526020016040518091039020805490509050919050565b6001816040516106949190610c32565b90815260200160405180910390206040518060200160405280848152509080600181540180825580915050600190039060005260206000200160009091909190915060008201518160000190816106eb9190610e55565b5050505050565b6000604051905090565b600080fd5b600080fd5b600080fd5b600080fd5b6000601f19601f8301169050919050565b7f4e487b7100000000000000000000000000000000000000000000000000000000600052604160045260246000fd5b61075982610710565b810181811067ffffffffffffffff8211171561077857610777610721565b5b80604052505050565b600061078b6106f2565b90506107978282610750565b919050565b600067ffffffffffffffff8211156107b7576107b6610721565b5b6107c082610710565b9050602081019050919050565b82818337600083830152505050565b60006107ef6107ea8461079c565b610781565b90508281526020810184848401111561080b5761080a61070b565b5b6108168482856107cd565b509392505050565b600082601f83011261083357610832610706565b5b81356108438482602086016107dc565b91505092915050565b600080600080600080600080610100898b03121561086d5761086c6106fc565b5b600089013567ffffffffffffffff81111561088b5761088a610701565b5b6108978b828c0161081e565b985050602089013567ffffffffffffffff8111156108b8576108b7610701565b5b6108c48b828c0161081e565b975050604089013567ffffffffffffffff8111156108e5576108e4610701565b5b6108f18b828c0161081e565b965050606089013567ffffffffffffffff81111561091257610911610701565b5b61091e8b828c0161081e565b955050608089013567ffffffffffffffff81111561093f5761093e610701565b5b61094b8b828c0161081e565b94505060a089013567ffffffffffffffff81111561096c5761096b610701565b5b6109788b828c0161081e565b93505060c089013567ffffffffffffffff81111561099957610998610701565b5b6109a58b828c0161081e565b92505060e089013567ffffffffffffffff8111156109c6576109c5610701565b5b6109d28b828c0161081e565b9150509295985092959890939650565b6000602082840312156109f8576109f76106fc565b5b600082013567ffffffffffffffff811115610a1657610a15610701565b5b610a228482850161081e565b91505092915050565b600081519050919050565b600082825260208201905092915050565b60005b83811015610a65578082015181840152602081019050610a4a565b60008484015250505050565b6000610a7c82610a2b565b610a868185610a36565b9350610a96818560208601610a47565b610a9f81610710565b840191505092915050565b600060e0820190508181036000830152610ac4818a610a71565b90508181036020830152610ad88189610a71565b90508181036040830152610aec8188610a71565b90508181036060830152610b008187610a71565b90508181036080830152610b148186610a71565b905081810360a0830152610b288185610a71565b905081810360c0830152610b3c8184610a71565b905098975050505050505050565b6000819050919050565b610b5d81610b4a565b82525050565b6000602082019050610b786000830184610b54565b92915050565b60008060408385031215610b9557610b946106fc565b5b600083013567ffffffffffffffff811115610bb357610bb2610701565b5b610bbf8582860161081e565b925050602083013567ffffffffffffffff811115610be057610bdf610701565b5b610bec8582860161081e565b9150509250929050565b600081905092915050565b6000610c0c82610a2b565b610c168185610bf6565b9350610c26818560208601610a47565b80840191505092915050565b6000610c3e8284610c01565b915081905092915050565b7f4e487b7100000000000000000000000000000000000000000000000000000000600052602260045260246000fd5b60006002820490506001821680610c9057607f821691505b602082108103610ca357610ca2610c49565b5b50919050565b60008190508160005260206000209050919050565b60006020601f8301049050919050565b600082821b905092915050565b600060088302610d0b7fffffffffffffffffffffffffffffffffffffffffffffffffffffffffffffffff82610cce565b610d158683610cce565b95508019841693508086168417925050509392505050565b6000819050919050565b6000610d52610d4d610d4884610b4a565b610d2d565b610b4a565b9050919050565b6000819050919050565b610d6c83610d37565b610d80610d7882610d59565b848454610cdb565b825550505050565b600090565b610d95610d88565b610da0818484610d63565b505050565b5b81811015610dc457610db9600082610d8d565b600181019050610da6565b5050565b601f821115610e0957610dda81610ca9565b610de384610cbe565b81016020851015610df2578190505b610e06610dfe85610cbe565b830182610da5565b50505b505050565b600082821c905092915050565b6000610e2c60001984600802610e0e565b1980831691505092915050565b6000610e458383610e1b565b9150826002028217905092915050565b610e5e82610a2b565b67ffffffffffffffff811115610e7757610e76610721565b5b610e818254610c78565b610e8c828285610dc8565b600060209050601f831160018114610ebf5760008415610ead578287015190505b610eb78582610e39565b865550610f1f565b601f198416610ecd86610ca9565b60005b82811015610ef557848901518255600182019150602085019450602081019050610ed0565b86831015610f125784890151610f0e601f891682610e1b565b8355505b6001600288020188555050505b50505050505056fea2646970667358221220166c89a6f17211b138f84d6ad98930b3eaed21502241c23508f14f5f304668fc64736f6c63430008100033",
  "immutableReferences": {},
  "source": "// SPDX-License-Identifier: MIT\npragma solidity 0.8.16;\n\ncontract User{\n    \n    struct Details{\n    \n        string privateKey;\n        string password;\n        string phoneNumber;\n        string vehicle;\n        string vehicleNo;\n        string name;\n        string category;\n    \n    }\n    struct Rides{\n        string driver;\n    }\n    mapping ( string  => Details)  detailsMap;\n    mapping ( string => Rides[]) finalBid;\n    \n    function get(string memory username) public view returns(string memory,string memory,string memory,string memory,string memory,string memory,string memory){\n    \n        Details memory currentUser=detailsMap[username];\n        return (\n           \n            currentUser.privateKey,\n            currentUser.phoneNumber,\n            currentUser.vehicle,\n            currentUser.vehicleNo,\n            currentUser.category,\n            currentUser.name,\n            currentUser.password\n            \n        );\n    \n    }\n    function set(string memory name,string memory username,string memory phoneNumber,string memory vehicle,string memory vehicleNo,string memory category,string memory password,string memory key) public{\n        detailsMap[username]=Details(\n            key,\n            password,\n            phoneNumber,\n            vehicle,\n            vehicleNo,\n            name,\n            category\n        );\n        \n    }\n    function setFinalBid(string memory driver,string memory rider)  public{\n        finalBid[rider].push(Rides(driver));\n    }\n    function getFinalBid(string memory rider) public view returns(uint){\n        return finalBid[rider].length;\n    }\n}",
  "sourcePath": "/Users/dhruvbansal/Desktop/FinalYearProject/get-set-pool/contracts/User.sol",
  "compiler": {
    "name": "solc",
    "version": "0.8.16+commit.07a7930e.Emscripten.clang"
  },
  "schemaVersion": "3.4.5",
  "updatedAt": "2022-09-07T09:31:11.119Z",
  "devdoc": {
    "kind": "dev",
    "methods": {},
    "version": 1
  },
  "userdoc": {
    "kind": "user",
    "methods": {},
    "version": 1
  }
}